:020000040001F9
:10B0000008480020F5B50100FDB50100FFB50100BD
:10B0100001B6010003B6010005B601000000000002
:10B0200000000000000000000000000007B6010062
:10B03000000000000000000009B601000BB601008E
:10B040000DB601000DB60100FDC801000DB60100EE
:10B050000DB601000DB6010081BD01000DB6010065
:10B060000DB601000DB60100D9C801000DB60100F2
:10B070000DB601000DB601000DB601000DB60100C0
:10B080000DB601003DC501000DB601000DB6010071
:10B0900059C601000DB601005DC601000DB60100E4
:10B0A0000DB601000DB601000DB601000DB6010090
:10B0B0000DB601000DB60100000000000000000008
:10B0C0000DB601000DB601000DB601000DB6010070
:10B0D0000DB601000DB601000000000000000000E8
:10B0E0000000000000000000000000000000000060
:10B0F0000000000000000000000000000000000050
:10B10000000000000000000000000000000000003F
:10B11000000000000000000000000000000000002F
:10B40000DFF80CD000F038FC004800475DF5010083
:10B4100008480020401E00BF00BF00BF00BF00BFA3
:10B4200000BF00BF00BF00BF00BF00BF00BF00BF24
:10B4300000BF00BF00BF00BF00BF00BF00BF00BF14
:10B4400000BF00BF00BF00BF00BF00BF00BF00BF04
:10B4500000BF00BF00BF00BF00BF00BF00BF00BFF4
:10B4600000BF00BF00BF00BF00BF00BF00BF00BFE4
:10B4700000BF00BF00BF00BF00BF00BF00BF00BFD4
:10B4800000BF00BF00BFC5D170470000401E00BF15
:10B4900000BF00BF00BF00BF00BF00BF00BF00BFB4
:10B4A00000BF00BF00BF00BF00BF00BF00BF00BFA4
:10B4B00000BF00BF00BF00BF00BF00BF00BF00BF94
:10B4C00000BF00BF00BF00BF00BF00BF00BF00BF84
:10B4D00000BF00BF00BF00BF00BF00BF00BF00BF74
:10B4E00000BF00BF00BF00BF00BF00BF00BF00BF64
:10B4F00000BF00BF00BF00BF00BF00BF00BFC5D17D
:10B5000070470000401E00BF00BF00BF00BF00BF6B
:10B5100000BF00BF00BF00BF00BF00BF00BF00BF33
:10B5200000BF00BF00BF00BF00BF00BF00BF00BF23
:10B5300000BF00BF00BF00BF00BF00BF00BF00BF13
:10B5400000BF00BF00BF00BF00BF00BF00BF00BF03
:10B5500000BF00BF00BF00BF00BF00BF00BF00BFF3
:10B5600000BF00BF00BF00BF00BF00BF00BF00BFE3
:10B5700000BF00BF00BFC5D170470000401E00BF24
:10B5800000BF00BF00BF00BF00BF00BF00BF00BFC3
:10B5900000BF00BF00BF00BF00BF00BF00BF00BFB3
:10B5A00000BF00BF00BF00BF00BF00BF00BF00BFA3
:10B5B00000BF00BF00BF00BF00BF00BF00BF00BF93
:10B5C00000BF00BF00BF00BF00BF00BF00BF00BF83
:10B5D00000BF00BF00BF00BF00BF00BF00BF00BF73
:10B5E00000BF00BF00BF00BF00BF00BF00BFC5D18C
:10B5F000704700000648804706480047FEE7FEE720
:10B60000FEE7FEE7FEE7FEE7FEE7FEE7FEE70000F7
:10B6100081C6010001B4010040EA01039B0703D089
:10B6200009E008C9121F08C0042AFAD203E011F881
:10B63000013B00F8013B521EF9D27047D2B201E043
:10B6400000F8012B491EFBD270470022F6E710B527
:10B6500013460A4604461946FFF7F0FF204610BD80
:10B660002DE9FE4F804681EA0300C00F0C46009092
:10B6700021F0004123F00045B8EB0200A94105D2BA
:10B680004046214690461C460B46024623F00040A9
:10B69000104347D0270DC7F30A00C3F30A510290A5
:10B6A000401A019040286BDAC3F3130040F4801B6A
:10B6B0000098924620B10023D2EB030A63EB0B0BF8
:10B6C00001985946C0F14002504600F0D8F90646AC
:10B6D0000D4650465946019A00F0E0F910EB08007B
:10B6E0006141002487EA115284EAE7731A4340D08B
:10B6F000009A62B3019A012A4FEA075215DC001B37
:10B7000061EB02014FF0004202EA0752CDE900422C
:10B71000001C41F5801132462B4600F017FA03B0A9
:10B72000BDE8F08F40462146F9E7001B61EB0201BE
:10B73000001C41F5801300185B412018A2F500178A
:10B7400047EB030140EAD570B6196D4111E06D0871
:10B750004FEA360645EAC0754FEA0752001B61EB17
:10B760000201001C41F5801149084FEA3000001920
:10B77000514132462B4603B0BDE8F04F00F0D7B937
:10B780000098012240000023D0EB020263EBE0733B
:10B79000009821464FEAE074B8EB000061EB040129
:10B7A000E9E783F000435BE781F0004158E72DE9CA
:10B7B000FE4F81EA030404F0004421F000410094AC
:10B7C0004FF0000B23F0004350EA01045ED052EA30
:10B7D00003045BD0C3F30A54C1F30A552C44A4F20A
:10B7E000F3340194A0FB0254C1F3130141F480111E
:10B7F000C3F3130343F4801301FB024400FB034E25
:10B80000840A970A44EA815447EA8357A4FB0768ED
:10B8100002958D0A05FB07854FEA932C04FB0C5417
:10B820002705029D4FEA065847EA1637B5EB08058B
:10B830006EEB070C870E920E47EA811742EA8312DD
:10B84000A7FB0201B6EB0B0164EB00042B0D43EAEE
:10B850000C335E1844EB1C50DA465146E7FB0201FC
:10B86000C5F313044FEA0B3343EA14534FEA04328F
:10B87000019C43EA0603A4F10C040294009CCDE968
:10B8800000B400F063F903B0BDE8F08F002001467A
:10B89000F9E72DE9F04D81EA030404F0004B21F0B3
:10B8A000004514464FF0000A23F0004150EA05021B
:10B8B00020D054EA01021DD0C5F30A570246C5F351
:10B8C0001303C1F31300C1F30A5640F4801543F487
:10B8D0008013A7EB0608101BD64608F2FD3873EB61
:10B8E000050002D308F1010801E092185B41B8F1AC
:10B8F000000F03DA00200146BDE8F08D00204FF470
:10B900008011064684460EE0171B73EB050705D32E
:10B91000121B63EB050306434CEA010C49084FEA8E
:10B92000300092185B4150EA0107EDD152EA030062
:10B9300012D082EA040083EA0501084305D0101BF7
:10B94000AB4106D20122002306E000224FF0004363
:10B9500002E06FF0010253101AEB06004CEB0851A5
:10B9600010EB0A0041EB0B01BDE8F04D00F0DFB831
:10B970000EB5C10F80EAE0700844CA07002140F20A
:10B9800033438DE80E000A460B4600F0DFF803B0A3
:10B9900000BD00F0004230F000400AD0C10D01F5BA
:10B9A0006071C0F3160042EA0151C208400711431A
:10B9B000704700200146704701F0004330B421F089
:10B9C000004150EA010206D00A0DA2F56072C1F3EF
:10B9D0001301002A02DC30BC00207047440F44EA07
:10B9E000C104C100E01830BC00EBC25000F068B8E0
:10B9F00030B50B46014600202022012409E021FA3F
:10BA000002F59D4205D303FA02F5491B04FA02F53B
:10BA10002844151EA2F10102F1DC30BD2DE9F05FD2
:10BA20000546002092469B468846064681464024AD
:10BA30001BE0284641464746224600F02FF9534670
:10BA40005A46C01A914110D311461846224600F0BA
:10BA500016F82D1A67EB01084F46224601200021F7
:10BA600000F00DF817EB00094E41201EA4F101046F
:10BA7000DFDC484631462A464346BDE8F09F202A8F
:10BA800004DB203A00FA02F1002070479140C2F135
:10BA9000200320FA03F3194390407047202A06DB65
:10BAA000CB17203A41FA02F043EAE07306E041FA8C
:10BAB00002F3D040C2F1200291400843194670477A
:10BAC0000029A8BF7047401C490008BF20F00100B2
:10BAD000704710B4B0FA80FC00FA0CF050EA010490
:10BAE00004BF10BC704749B1CCF1200421FA04F422
:10BAF00011FA0CF118BF012121430843A3EB0C01FB
:10BB0000CB1D4FEA00614FEA102042BF002010BC5D
:10BB1000704700EBC35010440029A4BF10BC70470D
:10BB2000401C490008BF20F0010010BC704710B550
:10BB3000141E73F1000408DA401C41F10001921850
:10BB40005B411A4301D120F0010010BD2DE9F04DF9
:10BB500092469B4611B1B1FA81F202E0B0FA80F24E
:10BB600020329046FFF78BFF04460F4640EA0A005A
:10BB700041EA0B0153465A46084313D0114653EA93
:10BB8000010019D0C8F14002504600F087F8054680
:10BB90000E46504659464246FFF771FF084305D00E
:10BBA000012004E020463946BDE8F08D0020054321
:10BBB00046EAE0762C4337430A986305E40AA0EB93
:10BBC00008000022FD0A44EA47540A3002D500204A
:10BBD0000146E9E7010510196941DDE90845001949
:10BBE0006941BDE8F04DA2E7C1F30A52C1F3130168
:10BBF00040F2FF3341F480119A4202DA00200146FC
:10BC0000704740F233439A42A2F2334202DC52427E
:10BC100000F044B8FFF733BF30B5041E71F10004E3
:10BC200004DB4FF00044404264EB0101141E73F149
:10BC3000000405DB1C464FF00043524263EB040353
:10BC40008B4208BF824230BD30B5041E71F1000442
:10BC500004DB4FF00044404264EB0101141E73F119
:10BC6000000405DB1C464FF00043524263EB040323
:10BC7000994208BF904230BD064C074D06E0E0688F
:10BC800040F0010394E8070098471034AC42F6D323
:10BC9000FFF7BAFBA80D0200C80D0200202A04DB42
:10BCA000203A21FA02F00021704721FA02F3D04035
:10BCB000C2F12002914008431946704770B58C18B4
:10BCC00010F8015B15F0070301D110F8013B2A11B0
:10BCD00006D110F8012B03E010F8016B01F8016B9D
:10BCE0005B1EF9D12B0705D40023521E0DD401F899
:10BCF000013BFAE710F8013BCB1A921C03E013F862
:10BD0000015B01F8015B521EF9D5A142D8D3002096
:10BD100070BD2DE9F04116460F460546002408E0A7
:10BD20002946572000F086F96D1C3855641CEDB289
:10BD3000E4B2B442F4D30020BDE8F08180ED000A03
:10BD40009FED020A81ED000A70470000000000002C
:10BD50009FED091A074820EE010AD0ED010A9FED78
:10BD6000071AC0ED000A00EE810A80ED010A30EEEC
:10BD7000800A7047082000207B1F7B3E4370023FF3
:10BD80002DE9F0470025DFF8F090A8464FF48076C3
:10BD900001242F46304604F06BF938B1D9F804037A
:10BDA000204203D0304604F059F92543361D640083
:10BDB0007F1CB6B2082FEDD34FF4BE74204604F0BA
:10BDC00057F938B1204604F049F92C4845F00045B0
:10BDD000D0F800802A4E15F0FF0F14D00127002460
:10BDE0002F420CD009EB8401D1F81005D1F81015C1
:10BDF000C0F3042056F82420C1F3014190477F008E
:10BE0000641C082CECD3002D32DA0024B14609EB77
:10BE100004004E4690F95010491C26D090F85070FE
:10BE200027F0C005284602F04FFE56F82060E6B124
:10BE3000BF090120A840A90001F1A041D1F80017D5
:10BE400010EA080FC1F3014102D0022902D00CE030
:10BE500003290AD1032F05D102290BD0022128463C
:10BE600004F0CDF839462846B047641C042CCED3E4
:10BE7000BDE8F0870321F2E70060004010050050A4
:10BE80009826002010B51E2004F0D0F81D2004F0E4
:10BE9000ACF81D2004F0CAF80120FFF76FFB1E204C
:10BEA00004F0D4F80120FFF769FBBDE810401E2024
:10BEB00004F0BCB810B51E2004F0B8F81D2004F042
:10BEC00094F81D2004F0C2F80120FFF757FB1E2054
:10BED00004F0BCF80120FFF751FBBDE810401E2024
:10BEE00004F0A4B82DE9F0410646002421461D20A7
:10BEF00004F05EF8114F00251E2004F097F8012091
:10BF0000FFF73CFB1E2004F0A1F86006040E386821
:10BF1000400F10F0010F01D0641CE4B20120FFF7C4
:10BF20002DFB6D1CEDB2082DE6D326B1FFF7AAFF5D
:10BF30002046BDE8F081FFF7BDFFF9E7100500508E
:10BF400070B504461D2004F050F81E2004F06EF871
:10BF5000002520064FF01D0002D504F077F801E01F
:10BF600004F064F86006040E1E2004F06FF801204F
:10BF7000FFF704FB1E2004F059F80120FFF7FEFA3A
:10BF80006D1CEDB2082DE4D370BD10B51D2004F07A
:10BF90002CF81D2004F05AF81E2004F057F81D203C
:10BFA00004F044F80120FFF7E9FABDE810401E2034
:10BFB00004F03CB810B51D2004F017F81E2004F062
:10BFC00035F81D2004F032F80120FFF7D7FA1E20C3
:10BFD00004F03CF81D2004F039F8BDE810400120C1
:10BFE000FFF7CCBA10B5002421461D2003F0E0FF76
:10BFF0001D2004F02BF80120FFF7C0FA1E2004F0EA
:10C0000025F80120FFF7BAFA094807E0641CE4B2FA
:10C01000FA2C03D9FFF7CEFF012010BD0168490FAC
:10C0200011F0010FF2D11E2004F000F8002010BD25
:10C030001005005070B50D460446FFF7A6FF6006D8
:10C04000000EFFF77DFFFFF7CDFF2846FFF778FFD3
:10C05000FFF7C8FFFFF799FF012000EB4400C0B2D3
:10C06000FFF76EFFFFF7BEFF0020FFF73BFF044620
:10C07000FFF7A0FF204670BD70B515460E4604467A
:10C08000FFF783FF6006000EFFF75AFFFFF7AAFFD6
:10C0900050B93046FFF754FFFFF7A4FF2846FFF7DB
:10C0A0004FFFFFF79FFF18B1FFF784FF012070BD1E
:10C0B000FFF780FF002070BD7CB514460D46064694
:10C0C0006B4606223B21682000F072F900280BD154
:10C0D000BDF8001049BA3180BDF8021049BA298074
:10C0E000BDF8041049BA21807CBD000008B56B463C
:10C0F00002224121682000F05BF9BDF8000040BA3F
:10C1000000B2FFF735FC9FED0D1B53EC112BFFF731
:10C11000C0FB9FED0C1B53EC112BFFF7A1FAFFF7AF
:10C120004BFC00EE100ADFED090A20EE200ABDEEFE
:10C13000C00A10EE100A00B208BD000000000000A6
:10C1400000407540A4703D0AD74342400000C842F9
:10C1500010B50D2003F062FF0C2003F03CFF0C2013
:10C1600003F05CFF0120FFF7CDF90D2003F066FF1F
:10C170000120FFF7C7F9BDE810400D2003F04EBFC6
:10C1800010B50D2003F04AFF0C2003F024FF0C2013
:10C1900003F054FF0120FFF7B5F90D2003F04EFF27
:10C1A0000120FFF7AFF9BDE810400D2003F036BFC6
:10C1B0002DE9F0410646002421460C2003F0EFFE55
:10C1C000114F00250D2003F029FF0120FFF79AF9F8
:10C1D0000D2003F033FF6006040E3868000B10F0EA
:10C1E000010F01D0641CE4B20120FFF78BF96D1C34
:10C1F000EDB2082DE6D326B1FFF7AAFF2046BDE831
:10C20000F081FFF7BDFFF9E71005005070B5044657
:10C210000C2003F0E0FE0D2003F000FF00252006B7
:10C220004FF00C0002D503F009FF01E003F0F6FE29
:10C230006006040E0D2003F001FF0120FFF762F9F4
:10C240000D2003F0EBFE0120FFF75CF96D1CEDB251
:10C25000082DE4D370BD10B50C2003F0BCFE0C20FB
:10C2600003F0ECFE0D2003F0E9FE0C2003F0D6FEF7
:10C270000120FFF747F9BDE810400D2003F0CEBEC6
:10C2800010B50C2003F0A7FE0D2003F0C7FE0C2014
:10C2900003F0C4FE0120FFF735F90D2003F0CEFEB8
:10C2A0000C2003F0CBFEBDE810400120FFF72AB9B7
:10C2B00010B5002421460C2003F071FE0C2003F081
:10C2C000BDFE0120FFF71EF90D2003F0B7FE01208F
:10C2D000FFF718F9094807E0641CE4B2FA2C03D907
:10C2E000FFF7CEFF012010BD0168090B11F0010F0F
:10C2F000F2D10D2003F092FE002010BD1005005079
:10C3000010B503F0D5FA80216B2000F0C0F864204E
:10C3100003F028FB00216B2000F0B9F8032000F0A7
:10C3200082F8002000F07AF8322000F099F800211D
:10C33000382000F0ACF800216A2000F0A8F80021B5
:10C34000232000F0A4F88021372000F0A0F8752009
:10C3500000F011F8682801D0012010BD01216B20E8
:10C3600000F095F800216C2000F091F8322000F0E8
:10C3700077F8002010BD10B50446FFF76CFFD02001
:10C38000FFF744FFFFF794FF2046FFF73FFFFFF75B
:10C390008FFFFFF760FFD120FFF738FFFFF788FF1F
:10C3A0000020FFF705FF0446FFF76AFF204610BD97
:10C3B0002DE9F0411D4614460F460646FFF74BFF98
:10C3C0007006000EFFF722FFFFF772FF20B1FFF7A4
:10C3D00057FF0120BDE8F0813846FFF717FFFFF750
:10C3E00067FFFFF738FF012000EB4600C0B2FFF700
:10C3F0000DFFFFF75DFF09E0012C0DD05FF001009C
:10C40000FFF7D6FE641E05F8010BE4B2002CF3D151
:10C41000FFF736FF0020DDE70020F1E7C006010E40
:10C420001C2000F034B8C006010E1B2000F02FB80D
:10C43000BC2801D3012110E0622801D302210CE0C5
:10C440002A2801D3032108E0142801D3042104E0A1
:10C450000A2801D3052100E006211A2000F017B8B0
:10C4600010B504464FF47A70844201D9044602E0C4
:10C47000042C00D20424B0FBF4F0401EC1B21920F9
:10C4800000F005F86008BDE81040FFF7D1BF70B5B7
:10C490000C460546FFF7DFFED020FFF7B7FEFFF79B
:10C4A00007FF50B92846FFF7B1FEFFF701FF20460E
:10C4B000FFF7ACFEFFF7FCFE18B1FFF7E1FE01202D
:10C4C00070BDFFF7DDFE002070BD00F01F020121EE
:10C4D00091404009800000F1E020C0F880127047D0
:10C4E00000F01F02012191404009800000F1E0208E
:10C4F000C0F80011704700F01F020121914040096F
:10C50000800000F1E020C0F8001270474907090ED2
:10C51000002806DA00F00F0000F1E02080F8141D7A
:10C52000704700F1E02080F80014704710B502F069
:10C53000B7FBBDE8104002F0CFBA00000748002169
:10C54000C0F84011C0F84411C0F84811C0F84C11AF
:10C55000C0F80011C0F8041104F0AEB8001001409A
:10C5600001465720FFF766BD10B5364C2DED028B06
:10C5700094ED011A00EE001A84ED011A94ED020AFE
:10C5800000EEA00A84ED020AE168491CE16000287F
:10C5900054D02078401CC0B2207003284ED100EE49
:10C5A000101AF8EE400A81EE200A10EE100AFFF78A
:10C5B000F0F941EC100B00F0C3F9B0EE408A94EDB5
:10C5C000030AF0EE608AD4ED020AB8EE401A80EE5B
:10C5D000810A10EE100AFFF7DCF941EC100B00F0B5
:10C5E000AFF99FED191B51EC100B53EC112BFFF71A
:10C5F000DEF853EC182BFFF74CF9FFF7DDF900EEEE
:10C60000100A134910EE100A0022884205DDBCEE24
:10C61000C00A10EE100A423809E010EE100A0D4967
:10C62000884205DDBCEEC00A10EE100A3238C2B2F4
:10C6300003F0E2FD03481030805C6070BDEC028BBB
:10C6400010BD00003C200020000000000000594008
:10C65000000084420000484203F0CABF074810B5FA
:10C66000406830B18047002807D0BDE8104001F095
:10C67000F3B9BDE8104002F0AFBD10BDDC1F0020D3
:10C68000F0B58B480022041D0378211D081D0126EA
:10C69000062B17D125782D0714D10D78C5F3031576
:10C6A000032D03D1077817F0F00F0ED0042D03D11E
:10C6B000077817F0F00F08D0052D03D1057815F095
:10C6C000F00F02D0062B09D014E04FF08055D5F8BA
:10C6D0004452784FC5F342353D6002E025782D077E
:10C6E00008D10D78C5F30315032D03D1057815F096
:10C6F000F00F02D0062B06D01DE06F4D2F6827F0FB
:10C7000080772F601AE025782D0714D10D78C5F3B6
:10C710000315032D03D1077817F0F00F0ED0042D69
:10C7200003D1077817F0F00F08D0052D03D1057855
:10C7300015F0F00F02D0062B0AD015E04FF080451F
:10C74000C5F80C21C5F810215A4D2D1F2A6002E0B2
:10C7500025782D0708D10D78C5F30315032D03D1D6
:10C76000057815F0F00F02D0062B05D066E0514C8D
:10C7700003236434236002E023781B075ED1097829
:10C78000C1F30311052959D1007810F0F00F55D1EC
:10C790004A4800684A4908604848001D0068091D69
:10C7A0000860464808300068091D086043480C309E
:10C7B0000068091D0860414810300068091D0860C4
:10C7C0003E4814300068091D08603C481830006875
:10C7D0003B492031086039481C300068091D086059
:10C7E000364820300068091D08603448243000684D
:10C7F000091D0860314828300068091D08602F486D
:10C800002C300068091D08602C48303000682C4925
:10C8100040310860294834300068091D0860274805
:10C8200038300068091D086024483C300068091D44
:10C830000860224840300068091D08601E487438AE
:10C84000016841F470010160BFF34F8FBFF36F8F38
:10C850004FF01021D1F80002002803DBD1F80002CC
:10C86000002821DA174B1E6017480468002CFCD002
:10C870001524C1F800420568002DFCD0C1F804421F
:10C8800001680029FCD01A6001680029FCD0BFF3C0
:10C890004F8F0948F03801680C4A01F4E0611143F8
:10C8A0000160BFF34F8FFEE70A4909480860F0BDF9
:10C8B000E00F00F03C050040FCED00E00404001037
:10C8C00020C5004004E5014000E401400400FA05F1
:10C8D0000090D003401F00200648D0F840110129E5
:10C8E00006D10021C0F8401103480168491C0160CD
:10C8F0007047000000A00040782000200348007F1F
:10C9000008B104F095B804F00FB80000F02600203C
:10C910000A4610B501465720FFF7AEFB002010BDB8
:10C920000FB4054B10B503A9044A029800F074FB3C
:10C9300010BC5DF814FB00001BF10100D81F0020A3
:10C9400070B5D94B00242DED020B2DED108BDDE9D8
:10C950001010984205DA20F000429A4201D809D11D
:10C9600041B19DED100BBDEC108B02B0BDE87040E5
:10C9700000F05EBAB0F5801F26DA11430BD0002814
:10C9800013DA012000F080FABDEC108B02B0BDE894
:10C99000704000F059BA022000F076FA00F030FA48
:10C9A00051EC100B81F000419EE06FF035049FEDDB
:10C9B000C00B53EC102B9DED100B51EC100BFEF740
:10C9C000F6FECDE91001084604EB2051C0F3130434
:10C9D000B948A1F2FF31204400F4801080F07F625A
:10C9E00082F04052224301EB20559FEDB50B11928E
:10C9F00053EC102B9DED100B51EC100BFEF7D1FEFC
:10CA000041EC180BA01CC0F313009FEDAFDB9FEDB2
:10CA1000B0EBB14E7E4403286CD296ED000B51EC86
:10CA2000180B53EC102BFFF7F7F81DD1002D01BFA9
:10CA300096ED000BBDEC108B02B070BD2846FEF7E2
:10CA400097FF41EC180B53EC1D2BFEF7B0FE41ECA9
:10CA5000190B53EC1E2B51EC180BFEF7A8FE53ECF0
:10CA6000192BFEF7FDFD3FE09FED9D0B51EC180BE0
:10CA700053EC102BFEF79BFE9FED9B1B53EC112BF1
:10CA8000FEF792FE41EC190B53EC182B51EC180BEE
:10CA9000FEF78DFE53EC192BFEF789FE41EC190BC6
:10CAA000002D04BF53EC192B51EC180B1AD028465B
:10CAB000FEF75EFF41EC1A0B53EC1D2BFEF777FEE1
:10CAC00053EC192BFEF770FE53EC182BFEF769FEA2
:10CAD00041EC180B53EC1E2B51EC1A0BFEF767FEC2
:10CAE00053EC182BFEF75DFEBDEC108B02B041EC51
:10CAF000100B70BD9FED7E0B51EC180B53EC102BFF
:10CB0000FEF7AEFD41EC100B51EC180B53EC102B63
:10CB1000FEF7BFFE41EC190B2846FEF729FF41EC5A
:10CB20001B0B53EC192B51EC190BFEF740FE41EC9B
:10CB30001A0B714853EC1A2B261851EC1A0BFEF7FE
:10CB400036FE41EC1F0B6D48C4F1510404F5D724A7
:10CB5000B0EE4F0AF0EE6F0A0321784400F0D2F8ED
:10CB600053EC1F2B51EC100BFEF721FE41EC1C0B7C
:10CB70006348B0EE4F0AF0EE6F0A0421784400F0EB
:10CB8000C1F853EC1A2B51EC100BFEF710FE344396
:10CB900053EC1C2BFEF764FD41EC1C0B002C4CDD10
:10CBA0009FED510B51EC180B53EC102BFEF7FFFDD2
:10CBB00053EC182BFEF7FBFD41EC1A0B55B353EC6D
:10CBC0001D2B51EC1B0BFEF7F2FD41EC1D0B53EC42
:10CBD0001C2B51EC1A0BFEF743FD53EC192BFEF7FF
:10CBE000E6FD53EC1D2BFEF73BFD53EC1A2BFEF735
:10CBF000DBFD53EC182BFEF7D4FD41EC180B53EC86
:10CC00001E2B51EC1B0BFEF7D2FD53EC182BFEF73D
:10CC1000C8FD69E753EC1C2B51EC1A0BFEF720FD05
:10CC200053EC192BFEF7C3FD53EC1A2BFEF7BCFD9A
:10CC300053EC182BFEF7B8FD56E735B353EC1D2B1C
:10CC400051EC1B0BFEF7B3FD41EC1A0B53EC1C2B04
:10CC500051EC180BFEF7A5FD53EC192BFEF7A7FDC1
:10CC600053EC1A2BFEF79DFD53EC182BFEF799FDA4
:10CC700041EC180B53EC1E2B51EC1B0BFEF797FDF0
:10CC800053EC182BFEF78DFD2EE753EC1C2B51ECCB
:10CC9000180BFEF786FD53EC192BFEF788FD53ECBD
:10CCA000182BFEF781FD1FE70000F07F0000000059
:10CCB0000000000000005043645F09000000000015
:10CCC000000000000000F03F763C7935EF39EA3D86
:10CCD0000000E0FE422EE63F884300000000000016
:10CCE000555555555555D53F000000000000E03F13
:10CCF000000000000000004086EBF9FF0A4200003F
:10CD00000042000070B504462DED028B4D1E00EB75
:10CD1000C500B0EE408AF0EE608A90ED000B35F071
:10CD2000060017D053EC182B51EC100BFEF73FFD0B
:10CD300041EC100B6D1E04EBC50090ED001B51EC97
:10CD4000100B53EC112BFEF78BFC41EC100B35F064
:10CD50000600E7D1022D36D0042D1CD0062D1CBFB5
:10CD6000BDEC028B70BD53EC182B51EC100BFEF791
:10CD70001EFD94ED0A1B53EC112BFEF771FC53ECD6
:10CD8000182BFEF714FD94ED081B53EC112BFEF746
:10CD900067FC41EC100B53EC182B51EC100BFEF719
:10CDA00006FD94ED061B53EC112BFEF759FC53ECDA
:10CDB000182BFEF7FCFC94ED040B53EC102BFEF744
:10CDC0004FFC41EC100B53EC182B51EC100BFEF701
:10CDD000EEFC94ED021B53EC112BFEF741FC53ECDF
:10CDE000182BFEF7E4FC94ED001B53EC112BFEF71F
:10CDF00037FCBDEC028B41EC100B70BD0000000055
:10CE00009FED070B10B553EC102B9FED070B51EC6A
:10CE1000100BFEF73EFD41EC100B10BD00000000B2
:10CE20000000000000000000000000000000F03FD3
:10CE300010B553EC102B51EC100BFEF711FC41EC2C
:10CE4000100B10BD000000009FED050B10B553EC5A
:10CE5000102B51EC100BFEF71CFD41EC100B10BD1C
:10CE6000000000000000000002E008C8121F08C116
:10CE7000002AFAD170477047002001E001C1121F5B
:10CE8000002AFBD17047000001490860704700008C
:10CE90007C2000202DE9FF5F82B00021DDE9043015
:10CEA000020DDDF840B0034318D044F61050A2F252
:10CEB000FF3242431514119801281FD0A5EB0B0037
:10CEC000401C5FEA000A4FF000064E4FDFF8389131
:10CED000B046504615D5CAF1000413E0119801245C
:10CEE0004AA3012801D16FEA0B010298119AC0E907
:10CEF0000031C0E9024206B0BDE8F09FCBF100006E
:10CF0000DFE704460021404A491842EB0450CDE9CE
:10CF1000001012E0E00707D032463B464046494643
:10CF2000FEF745FC8046894632463B461046194688
:10CF3000FEF73DFC06460F466410002CEAD1DDE901
:10CF40000401DDE90023BAF1000F06DAFEF72FFC39
:10CF500042464B46FEF72BFC05E0FEF79AFC4246A4
:10CF60004B46FEF796FC04460E460022284BFEF781
:10CF70006BFE03D84FF0FF30014607E00022254B3F
:10CF800020463146FEF76CFBFEF72EFE102409E02A
:10CF9000002C0ADB0A220023FEF740FD039B3032FF
:10CFA0001A55641E50EA0102F2D1641C039AC4F1BE
:10CFB00011031444119A012A03D0012208430DD110
:10CFC0000AE0084304D000204FF0110B119072E7E3
:10CFD000A3EB0B056D1E0DE05B4504DD4FF0000279
:10CFE00005F1010504E003DA4FF00002A5F10105A7
:10CFF000002AECD002981199C0E90231C0E900453D
:10D0000079E70000000014400000F03F300000000D
:10D010000000F0430000E03F2DE9FF4F95B09B4634
:10D020008946064600250FE2252877D100242746A9
:10D03000F84A0121059400E0044316F8013F203B23
:10D0400001FA03F01042F7D130782A2811D06FF09E
:10D050002F033078A0F13002092A16D8059A44F03F
:10D06000020402EB820203EB42021044761C05909C
:10D07000EFE759F8042B0592002A03DA504244F4F2
:10D080000054059044F00204761C30782E2816D106
:10D0900016F8010F44F004042A280DD06FF02F0277
:10D0A0003078A0F13003092B09D807EB870302EB96
:10D0B0004303C718761CF3E759F8047B761C3078D5
:10D0C0006C280FD006DC4C2817D068280DD06A28B1
:10D0D00014D104E0742810D07A280FD10DE044F464
:10D0E00000140AE044F4801401E044F4401472781F
:10D0F000824202D104F58014761C761C30786628B2
:10D100000BD013DC582877D009DC002875D04528CF
:10D11000F6D04628F4D047281AD19DE118E06328BC
:10D1200035D0642879D0652812D195E1702873D064
:10D1300008DC6728F1D069286FD06E280DD06F28E1
:10D1400006D1B5E073282CD0752875D0782874D016
:10D150005A46179990476D1C75E1C4F30250022896
:10D1600009D003280DD0D9F8001004280DD00D6087
:10D1700009F1040967E1D9F80010EA17C1E9005282
:10D18000F6E7D9F800100D80F2E70D70F0E719F816
:10D19000041B8DF8001000208DF80100EA460120E4
:10D1A00003E059F804AB4FF0FF3061074FF0000186
:10D1B00002D40DE008F101018846B9420FDA80453A
:10D1C000F8DB1AF808100029F4D108E008F1010191
:10D1D00088468142FADB1AF808100029F6D1059832
:10D1E0005B46A0EB080721463846179A00F094FAF0
:10D1F000284400EB080507E04DE029E10DE01AF8AE
:10D20000010B5A4617999047B8F10108F7D25B46CF
:10D2100021463846179A13E142E00A220092C4F3ED
:10D2200002524FF0000A022A08D059F804CB032A10
:10D230004FEAEC710AD00DE029E02AE009F107017C
:10D2400021F00702F2E802C1914609E00FFA8CFCD6
:10D250004FEAEC71042A03D14FFA8CFC4FEAEC71CF
:10D26000002907DA0A460021DCF1000C61EB02011B
:10D270002D2202E0220504D52B228DF80420012264
:10D2800003E0E20701D02022F7E7904659E00A21A7
:10D2900002E010220DE010214FF0000A00910BE097
:10D2A00010224FF0000A44F004040827009203E023
:10D2B00008224FF0000A0092C4F30252022A05D05D
:10D2C00059F804CB0021032A08D009E009F107012D
:10D2D00021F00702F2E802C1914605E01FFA8CFC3A
:10D2E000042A01D10CF0FF0C4FF00008220728D5CA
:10D2F000702806D0009B83F0100353EA0A0305D080
:10D300000EE040228DF80420012208E05CEA0102D0
:10D3100006D030228DF804208DF8050002229046B8
:10D32000009B83F0080353EA0A030AD15CEA010276
:10D3300001D1620705D530228DF804204FF0010895
:10D340007F1E582804D034A003900EA802900DE050
:10D3500036A0F9E753466046009AFEF75FFB844625
:10D360000398825C0298401E029002705CEA010001
:10D37000F0D1029806A9081A00F1200A600702D528
:10D3800024F4803400E00127574502DDA7EB0A00B2
:10D3900000E0002000EB0A01009005984144401A8B
:10D3A0000590E00306D45B462146179A059800F0E5
:10D3B000B3F90544002706E001A85A46C05D179955
:10D3C00090476D1C7F1C4745F6DBE0030CD55B46A0
:10D3D0002146179A059800F09FF9054404E0302093
:10D3E0005A46179990476D1C0099481E00900029D5
:10D3F000F5DC08E0029802995A460078491C02912F
:10D40000179990476D1CBAF10001AAF1010AF1DCED
:10D4100065E10000092801003031323334353637F8
:10D420003839616263646566000000003031323370
:10D430003435363738394142434445460000000010
:10D4400000F058F90544761C307800287FF4ECADE4
:10D4500019B02846BDE8F08F620700D4062709F10D
:10D46000070222F0070CFCE80223E14603F0004823
:10D470005FEA080C02D00FF2702C0DE05FEA045C4A
:10D4800002D50FF2682C07E05FEAC47C02D00FF2ED
:10D49000602C01E0AFF2700C4FF0FF3823F0004336
:10D4A000CDF850C065280CD006DC452809D04628A8
:10D4B0001DD047283DD13DE0662818D067287ED191
:10D4C00038E00021112F01DB112000E0781CCDE9AC
:10D4D000000106A90EA8FFF7DDFCDDE90F010E9A99
:10D4E00003910021009207F1010A04914DE04FF0F1
:10D4F00000400097CDE9011006A90EA8FFF7CAFC6D
:10D50000DDE90F0203920E9B11990022DDF80CA0B9
:10D510000093049211B9791C00EB010AB7EB0A00E1
:10D5200004D4C0F1FF3007F1010A0490AAEB070010
:10D53000019044E0012F00DA01270021112F01DDC5
:10D54000112000E03846CDE9000106A90EA8FFF73A
:10D55000A1FCDDE90F010E9A0391002104910092D4
:10D56000BA4621070CD40399514500DA8A46BAF12C
:10D57000010F05DD009AAAF10101515C302908D0A4
:10D58000B84202DA10F1040F06DA0121CDE90110E8
:10D5900015E0AAF10101E9E7002805DC049901443E
:10D5A0000491AAEB000102E0411C514500DD8A46CE
:10D5B0000499401A401C01904FF00040029020074F
:10D5C00004D40198504501DBCDF8048000208DF88B
:10D5D0004F0002980DF14F07B0F1004F25D02B20DE
:10D5E0000E9002984FF0020800280CDA4042029098
:10D5F0002D200E9007E00A210298FEF7F9F930314C
:10D60000029007F8011DB8F10001A8F10108F2DC51
:10D6100002980028EFD1791E0E980870307800F03B
:10D62000200040F0450007F8020D12A8C01B00F1D1
:10D6300007081498007800B1012000EB0A01019856
:10D6400001EBE07105984144401A401E0590E0034B
:10D6500006D45B462146179A059800F05DF805440C
:10D660001498007818B15A46179990476D1CE0033A
:10D6700024D55B462146179A059800F04DF80544DD
:10D680001CE00498002807DBDDE90301884203DD84
:10D690000098405C179901E0179930205A4690474E
:10D6A000049805F10105401C04900198401E01906A
:10D6B00004D12E205A46179990476D1CBAF10001EB
:10D6C000AAF1010ADDDC05E017F8010B5A461799AB
:10D6D00090476D1CB8F10001A8F10108F4DC5B462D
:10D6E0002146179A0598ABE62D0000002B0000009C
:10D6F000200000002DE9F041044600251E46174693
:10D70000880404D405E039462020B0476D1C641E0F
:10D71000F9D52846BDE8F0812DE9F0410446002501
:10D720001E469046C80301D5302700E02027880414
:10D7300004D505E041463846B0476D1C641EF9D556
:10D740002846BDE8F08101F01BBA2DE9FC5F0025F9
:10D75000168807461580406B14468946A8464FF048
:10D760000C0A11234FF0020B98B101784846032EA2
:10D7700048D380F800B02288521C92B22280835491
:10D780002288521C92B2228009F802102088401C84
:10D7900020803A6BDAB12088494600F11205B54283
:10D7A00030D80B5420881023401C80B220800B54AA
:10D7B0002088401C20800F202388155C401ECD54FB
:10D7C000238840B25B1C23800028F5DA454697F891
:10D7D0002E0030B133462246494601F043FD050094
:10D7E00011D197F82D0030B132462146484600F05D
:10D7F0009FFD050007D1B87820B32088C846001DDA
:10D80000B04202D95046BDE8FC9F684679DF002847
:10D81000F9D12188032008F8010020881921401C33
:10D8200080B2208008F800102088401C80B2208040
:10D8300000EB0801BDF8000003F066F901462088FE
:10D8400008442080F878B8B1228897F90310D31CD7
:10D850004846B342D6D800F802B022880123521CB1
:10D8600092B2228083542288521C92B2228009F8FC
:10D8700002102088401C20807868B8B1218890F977
:10D880000020CB1C4846B342BCD800F801B0218828
:10D890000A23491C89B2218043542188491C89B23A
:10D8A000218009F801202088401C2080388950B14F
:10D8B000CDE900464B460622022107F1080003F09D
:10D8C00091F905009FD1388A50B1CDE900464B4609
:10D8D0000722032107F1100003F084F9050092D11B
:10D8E000388B50B1CDE900464B461522142107F183
:10D8F000180003F077F9050085D1386A30B1334656
:10D900002246494601F0DAFA0500DBD1786A30B1E7
:10D9100033462246494601F02DFF0500D2D197F843
:10D920002C0038B1334622464946384602F03CFDC9
:10D930000500C7D1387838B13346224649463846C3
:10D9400001F0C2FF0500BDD128465CE710B50122F9
:10D950000221002000F0D2FE08B1072810D10722D2
:10D960000221012000F0CAFE08B1072808D10021D9
:10D970000A22084600F0C2FE08B1072800D10020A4
:10D9800010BD0000064800684FF40021044A81439E
:10D99000121D1160111D00F4002008607047000086
:10D9A0000405005070B50024064D06E068680121AA
:10D9B00010F8340002F000F8641C28788442F5D393
:10D9C000002070BDA41F0020F8B515460C46064681
:10D9D000052A01D20720F8BD02F0D0F818B902F0EC
:10D9E000A3F80028F7D1104900204E600C70C1E95F
:10D9F00002500E4D08610DE006EBC400696800910D
:10DA000081788DF801100078094A694602F026F8FD
:10DA10000028E0D1641EE4B2EED2BDE8F840054A29
:10DA20000021024800F04AB8A41F00205C0D02004B
:10DA300081F1010055F00100BFF34F8F04480168E8
:10DA4000044A01F4E06111430160BFF34F8FFEE728
:10DA50000CED00E00400FA050EB500210091CDE9BF
:10DA600001106A4644F20100FFF7E6FF10B5826834
:10DA7000C368934203D001F03DFB002010BD052098
:10DA800010BD29B112B1531E134203D009207047B3
:10DA90000E2070470160838000218160C1600846CC
:10DAA000704710B58268C3689A1A83889A4203D86F
:10DAB00001F02AFB002010BD042010BD074B9B681D
:10DAC00023B12AB120B10068037C1BB10820704744
:10DAD000072070474174426100207047B81F002042
:10DAE0002DE9F0478046994614460F4690074FF0BF
:10DAF000000634D11C4D8CB302F08EFB0320C5F818
:10DB00001490287004F11800002107EB4703AC6063
:10DB100004EBC102491C167056709770506000EB00
:10DB2000C3000329F4DBEE606E70AE701420FEF7C4
:10DB3000CCFC03211420FEF7E9FC1420FEF7D0FCF6
:10DB40000A49C1F8008003211120FEF7DFFC0748D5
:10DB5000001F006828610020BDE8F08701E0072071
:10DB6000FAE7AE60FBE70000B81F0020081501408F
:10DB70002DE9F843DFF870900D461746D9F80810E4
:10DB8000044651B34CB3052D02D20720BDE8F883FB
:10DB9000606910B3607C012821D0002602F0ECFF00
:10DBA000D9F80810804601EBC800694603F006F872
:10DBB000B8B1012100F8041B0C4910C0096880E8C5
:10DBC000E200D9F8081001EBC8009DF80010417080
:10DBD0001420FEF790FC0020D8E70820D6E72E4658
:10DBE000DCE70420D2E70000B81F00200415014044
:10DBF000F8B5124E0446B168E1B1DCB16069C8B154
:10DC00000027277402F0B8FF0546B068694600EBAC
:10DC1000C50002F0D3FF78B1022101704460B06802
:10DC20009DF8001000EBC50041701420FEF763FC66
:10DC30003846F8BD0820F8BD0420F8BDB81F002004
:10DC400010B5044609488168C2688088511A81422B
:10DC500006D10121064801F0E5FF08B1052010BDFD
:10DC60002146BDE810400148FFF700BF782600209C
:10DC70007A1F002070B50446234888B01E460D0068
:10DC8000426035D0A888296882B22048FFF7F9FEA3
:10DC900000282ED1A889A96882B21C481030FFF74D
:10DCA000F0FE002825D1202219496846FDF7B4FC72
:10DCB000A0680690207900B101208DF814008DF83D
:10DCC0001C60607900B10E208DF81500E07802909C
:10DCD000A078039020780190607800900D49684604
:10DCE00001F056FF002804D19DF81D0018B104E092
:10DCF000072008B070BD01F0DBFF03480121801C44
:10DD000001F090FFF5E70000781F00207826002042
:10DD10001C0D02008108020010B5044607480121CD
:10DD20004470401C02F06AF8112805D12146BDE874
:10DD300010400348FFF7B5BE10BD0000781F00205B
:10DD4000882600202DE9F0410446006802F039F9E8
:10DD50002078174F012606FA00F03860002160682D
:10DD600002F014F91348144D007FA069C5F824058A
:10DD7000607D217D0843C5F86C05D4E90001C5F834
:10DD80000C05C5F81415207D01280FD10021A068CD
:10DD900002F0FCF8E06802F014F9207B86403E6057
:10DDA000D4E90201C5F80815C5F81005BDE8F081F1
:10DDB00008050050F02600200020004010B5134C4C
:10DDC00000202DED028B607001F006FD10A0FEF723
:10DDD000A7FD032002F04FFB08210F2002F038FBC3
:10DDE0009FED108A04F12001081FB0EE480AFDF7EC
:10DDF000A5FF04F12801081FB0EE480AFDF79EFFB9
:10DE000001202070BDEC028B10BD0000102000200E
:10DE10006D61785F626567696E206F6B2E2E2E0DC7
:10DE20000A0000003333733FF0B50C4693B01F2156
:10DE30000726ADF80010ADF80410002750B1C178E6
:10DE400049070DD56A4602A9FFF77FFC002808D1D3
:10DE500002AD02E00025ADF800706CB1E07810B1C1
:10DE6000304613B0F0BD01AA0AA92046FFF76DFCA9
:10DE70000028F6D10AAA02E00022ADF80470BDF82D
:10DE80000400C3B2BDF80000C1B2284672DFE8E763
:10DE900070B50D4604991646040040D0F6B34148CB
:10DEA00000224271C0E90331242231463E48FDF789
:10DEB000B3FB00F0BBF83C493431A1F11000016024
:10DEC0002031816038215C38FDF7BFFB364821786E
:10DED00038380170A1788170E178C1706178417043
:10DEE000D4E90412C0E90412D4E90212C0E9021212
:10DEF000D4E90612C0E90612616AD1B100F1AC01A1
:10DF000000F1B80241628A60636A1B880B80616A13
:10DF1000436A898899800021436A07E0FFE70E2061
:10DF200070BD666AB668765C5654491C9E888E42FF
:10DF3000F7D8A16AD9B11C4AAC32A2F10C018A60AF
:10DF40008162A36A9B888B80A16A836A0988198091
:10DF50000021836A04E0A66AB668765C5654491CC0
:10DF60009E888E42F7D894F82C1080F82C10216AE5
:10DF700049B10C4914310162226A52884A80216AEF
:10DF8000026A09881180616821B10649891D4160D2
:10DF9000616841602946BDE8704003483838FFF7A2
:10DFA00043BF0000441F00207025002010B50288E8
:10DFB0001D4C102A18D00021112A1BD0192A18D163
:10DFC0008079002815D16079012820D0022824D03A
:10DFD000032824D004280CD12171E2680846002AC5
:10DFE00007D0BDE810401047017D012901D180888C
:10DFF000208110BD6170808821898842F9D101207B
:10E0000006E021690029F4D0BDE81040084702204D
:10E0100000F030F80028F4D110BD0320F8E7032009
:10E0200020710420F4E70000441F00200248002172
:10E030008161818381777047441F00200B4810B5B0
:10E040000078012810D10A4C607868B9607910B165
:10E0500074DF002809D101206070607900F00AF8AF
:10E0600010B1216901B18847002010BD7025002042
:10E07000441F00202DE9F04F724C87B000266071DC
:10E0800006A8069602F094F80127082805D0002873
:10E0900071D1069810B12770C0E00696FFF7C6FF51
:10E0A000694D687810B16079012804D0A87848B12A
:10E0B0006079022806D1E16819B1E7700820884725
:10E0C00000E0E6706079DFF87C814FF0020A08F129
:10E0D00018084FF0030B012806D1687840B108F109
:10E0E000010002F043F818B16079022802D00AE07A
:10E0F00084F805A0A87820B108F1010002F036F8F4
:10E1000008B984F805B0287B4FF0040920B960797C
:10E11000032801D184F80590287E20B9607904286D
:10E1200001D166712671E16841B16079032801D09F
:10E13000042803D1287808B16078C0B1A6701821EE
:10E140006846FDF782FA8DF8006001968DF8086048
:10E150000396607901280FD0022817D03A4E243652
:10E16000A6F15C0703281ED004284DD13BE0A77020
:10E1700007208847E3E752E0ADF81260CDF804804D
:10E180008DF80070ADF8106027713FE0CDF8048085
:10E190008DF800702889ADF81200A888ADF810003D
:10E1A00084F804A032E0A88AADF81200288AADF8FD
:10E1B00010002548243002F07CFD18B1287808B101
:10E1C000607810B184F804B01EE01F488DF808A0F4
:10E1D000039687F8039000213838FFF725FE0028C2
:10E1E0001DD105202BE0A88BADF81000288CADF8D0
:10E1F00012001548243002F05CFD18B1287808B1EF
:10E20000607878B184F80490607918B1684673DF5B
:10E21000002804D1E16809B120798847002007B0BF
:10E22000BDE8F08F08488DF808A0039687F80390A2
:10E2300000213838FFF7F8FD0028F0D106202071C2
:10E24000E2E70000441F00207025002070B505465D
:10E2500001461C220F48FDF7DFF90F4C00262670FF
:10E26000286830B1016861604068A060201D7ADFD5
:10E2700002E00948001D7BDF00280AD14FF6FF703D
:10E2800060806670BDE87040044A00210448FFF7D2
:10E2900015BC70BD5C260020641F0020190B020015
:10E2A000080D020070B5204C068800251D49E28942
:10E2B000102E15D01D4B112E1ED0122E2BD0502EED
:10E2C00019D130F8061F914215D1018B022912D1C4
:10E2D000807E10F0010F13D0BDE8704000F034BE16
:10E2E00083884B80D0F81630CB60D0F81A000861D4
:10E2F0004D70002AF0D070BD4FF6FF7048804D7011
:10E300001868FFF775FC0028F5D0A1690029F2D044
:10E31000BDE87040084750F8062FCA6040680861A1
:10E32000DAE70000641F00205C260020080D0200D0
:10E330007CB5054608880C460930904201D90C206E
:10E340007CBD684671DF0028FAD121880820685416
:10E3500020881B21401C80B2208029542088401C2A
:10E3600080B220802844DDF801100160BDF805105E
:10E3700081802088801D80B220809DF8001001B12E
:10E38000012129542088401C208000207CBD0000F1
:10E3900010B50446FFF786FF2146074800F040F815
:10E3A000204601F0A3FE2046FFF700FE2046BDE810
:10E3B000104000F0D9B80000A424002030B5174B5D
:10E3C0000D4604000FCB85B08DE80F0023D015B3A8
:10E3D0004FF6FF70A0822868A0610020A07521463A
:10E3E000684663DF002814D120788DF812000120E0
:10E3F000ADF81000A21C04A9A0DF002809D129460D
:10E40000204601F03FFF002803D12946204602F0B4
:10E41000A7F905B030BD0E20FBE700000C0D02008F
:10E4200000281ED000291CD00A88102A14D0112AD6
:10E4300014D0502A15D131F8062F038A9A4202D1FE
:10E440000B8B022B0ED083889A420AD18369002B52
:10E4500007D00A8B1A311847898801E04FF6FF71FF
:10E4600081827047897E11F0010100D00121817500
:10E47000704707B584B068B1828AA2F57F43FF3B3D
:10E480000AD0827D42B1BDF81820142A06D907208F
:10E4900007B000BD0E20FBE70820F9E7002200923C
:10E4A0000192029203928289039106A90291ADF82A
:10E4B000002001218DF80210808A6946A6DFE7E777
:10E4C00000B585B0002348221149082002F044F825
:10E4D00008B1FFF7C1FA6A460121002002F026F8D0
:10E4E00008B1FFF7B9FA0B4801F056FF08B1FFF782
:10E4F000B3FA684602F010F808B1FFF7ADFA064823
:10E5000002F000F8002801D0FFF7A6FA05B000BD20
:10E5100080200020001E002091E301007CB5114EF8
:10E520000C004FF00005306015D06946002000F067
:10E53000B1F8002815D101A9012000F0ABF800289E
:10E540000FD19DF8041009B1022003E09DF80010DE
:10E5500001B10B202070706810B9FFF7F7F905467C
:10E5600028467CBD381F002010B51A4C0188606811
:10E5700010290ED011292BD1401E606028D1FFF741
:10E58000E5F9002824D02168002921D0BDE81040F9
:10E590000847D0B900210122084600F0AFF808B1C1
:10E5A00007280FD107220221012000F0A7F808B1A7
:10E5B000072807D104220221002000F09FF820B193
:10E5C000072802D0216801B188476068401C60605C
:10E5D00010BD0000381F002010B5032000F020FA05
:10E5E00008B1062800D1002010BD00002DE9F04739
:10E5F00007460024244802E0641C042C41D250F851
:10E600002420BA42F8D1042C3BD21F48DFF87C907A
:10E610001F4E0C38A9F1140841B301290FD002296B
:10E620002FD104EB440030444578002D29D0D8F890
:10E630001010002925D02846BDE8F047084704EB14
:10E640004401755C0E44717861B1D8F804100F4A2A
:10E6500001EB81014900133A8068FFF789FA08B994
:10E6600088F80170B17809F80410DEE78068FFF7D8
:10E67000BFFA04EB4401314419F804008D78A84234
:10E68000D3D0BDE8F0870000D80C0200341F002072
:10E690000C25002004280CD2074A1268074B13F8F7
:10E6A000203001209840904300D0012008700020C5
:10E6B00070470020FAE7000010050050D80C020057
:10E6C00010B5042807D0072810D00A2812D1BDE8B9
:10E6D000104001F003BF08481321408876DF07E0AF
:10E6E000002807D0BDE81040FFF7B6B9FFF7A6FC39
:10E6F0000828F5D110BD0000001F002070B50023D0
:10E70000042810D20D4D00EB4004012A02D101294A
:10E710000CD00022094E00EB4000304461B10129C9
:10E7200006D0022906D00723184670BD0D30C2B2AC
:10E730002A55F9E74270F7E78270F5E70C250020CB
:10E74000044A01460020127AD20702D0084600F09F
:10E7500055B87047201F002070B50E462149054668
:10E7600000200A61C1E90165A9071BD50024012227
:10E7700011462046FFF7C2FF641C042C02D2002879
:10E78000F5D00FE070B9720804211748FFF71CF9A3
:10E7900040B9FFF707F928B91348144A0021143883
:10E7A000FFF78CF9E9070AD0114A4FF4F011116014
:10E7B0000F4B00221B1D1A600D4A103211600028F9
:10E7C0000FD109480B4A00211C38FFF777F90028C0
:10E7D00007D1BDE8704004480121074A1838FFF707
:10E7E0006DB970BD201F0020E80C02005DEA010039
:10E7F00008050050B9F2010085D901002DE9F84F54
:10E80000854EDFF810A24FF4E01CF16807462CEAB1
:10E81000010C0091002071680AF10404251D7F4B52
:10E820004FF400324FF4802B01EB810E8146182FFC
:10E8300016D2DFE807F00C17173A4E607083868F08
:10E84000868FEAA0A0A0A0A0CAD1D8E1EAEA009AE7
:10E850004FF4F01191432160C5F8009086F80090C4
:10E86000BDE8F88FC4F800C04846C5F80090DAF853
:10E8700000C08CF4F01C5FEA8C3C09D52260286053
:10E88000022F02D14FF4E16008E04FF47A6005E016
:10E890002A602060022F3CD04FF4C8706422B0FB85
:10E8A000F2F04143377000225EE0C4F800C04846F1
:10E8B000C5F80090DAF800C08CF4F01C5FEA8C3CDC
:10E8C00004D5226028604FF44870E7E72A60206092
:10E8D0001FE0C4F800C04846C5F80090DAF800C050
:10E8E0008CF4F01C5FEA8C3C02D522602860CCE7F7
:10E8F0002A602060D0E7C4F800C04846C5F8009000
:10E90000DAF800C08CF4F01C5FEA8C3CDED52260A3
:10E910002860C820C2E7C4F800C04846C5F8009087
:10E92000DAF800C08CF4F01C5FEA8C3C02D522605F
:10E93000286001E02A602060377014E0C4F800C04D
:10E940004DE0DAF800002BEA0002226000F480209B
:10E95000286008E0DAF800002BEA0001216000F4EA
:10E9600080202860714600221868BDE8F84FFFF744
:10E97000FFB821602EE098465868FFF739F9D7F1C3
:10E98000110100D040B1F16801F4F0112160C5F827
:10E990000090C6F80C9063E74FF40022F260012962
:10E9A0000CD9C82011FB00F16420B1FBF0F17068B4
:10E9B00000224143D8F80400FFF7DAF8F16801F4C7
:10E9C000F0112960C4F800904AE74FF4F01121607B
:10E9D000C5F80090377043E74FF4E01121604946D5
:10E9E000C5F8009006E04FF4D01121604946C5F803
:10E9F00000905A462A60BCE74FF4C0112160494696
:10EA0000C5F800904FF4C022F4E74FF4F0112960EC
:10EA10004946AEE704050050201F0020CC0C020040
:10EA200070B500210C4D012455F82120920002F10F
:10EA3000A042D2F8006704FA01F3034000D0032398
:10EA400026F4403646EA0343C2F80037491C04293D
:10EA5000EAD3002070BD0000D80C0200007802212B
:10EA6000FFF7C4BD05494FF0FF32082841F82020C8
:10EA700002D3084480F84820704700009826002000
:10EA8000F0B54FF0FF3512B10023082601E008234E
:10EA90000C260C4C05E000BF54F823707F1C04D0FA
:10EAA0005B1CB342F8D32846F0BD26185DB286F849
:10EAB000305044F82310002AF5D1E11881F84800BD
:10EAC000F1E70000982600200249084490F9300040
:10EAD00070470000982600202DE9F0412DED028BB3
:10EAE00000F0D8FE234C6169401AB0F5FA7F3AD99C
:10EAF00004F11C05281D00F01DFB04F12406B0EEF6
:10EB0000408A301D00F016FB38EE400A1A4FDFF83D
:10EB10006C8010EE100AB84204DDA0780F2801D2F4
:10EB2000401C10E0301D00F005FBB0EE408A281DAF
:10EB300000F000FB38EE400A10EE100AB8420ADD81
:10EB4000A078A0B1401EA070C1B20F2001F080FCDF
:10EB500000F0A0FEA061A07848B1002188F8001064
:10EB600000F098FE6061BDEC028BBDE8F0810121F0
:10EB7000F4E700001020002000B88847001F0020A4
:10EB80002DE9F041404C00250221227801273F4821
:10EB9000DFED3F0A4FF4FA66052A6AD2DFE802F099
:10EBA0000309283B6C0000F075FEB04261D9277064
:10EBB0005FE094ED011AB4EEC10AF1EE10FA08DD3F
:10EBC00010EE102A824201DDB0EE600A84ED010AE7
:10EBD000217000F05FFE2169401AB04205D99FED17
:10EBE0002D0A84ED020A84ED030A00F0DBF940E00F
:10EBF00094ED011AB4EEC10AF1EE10FA02D203202C
:10EC0000207036E010EE101A814201DDB0EE600A8D
:10EC100084ED010A2DE0F3EE0E0A94ED011A70EE78
:10EC2000200AF4EEC10AF1EE10FA21D284ED030AB3
:10EC300004200125207000F02DFE2169401A00EE0D
:10EC4000100AB8EE400AB5EEC00AF1EE10FA0BD089
:10EC5000DFED110A9FED111A20EE200AD4ED020A11
:10EC600000EE810A84ED020A00F014FE206100E04B
:10EC700021702846BDE8F08100F00CFE2169401AA1
:10EC8000C828B2D92770B0E7F41F0020000048441C
:10EC900000004844000000009A99193FCCCCCC3EBB
:10ECA0002DE9F0412DED048B00F0F4FD4D4C216970
:10ECB000401A0A287DD900F0EDFD206101F029FFFE
:10ECC000494D04F12001081F2A8800EE102AB8EEF1
:10ECD000400A01F059FC454EB0EE408A04F128018B
:10ECE0003288081F00EE102AB8EE400A01F04CFCF2
:10ECF000F0EE408AB1EE480AFDF72AF8B0EE409AED
:10ED0000FEF721FD074600F01BFAB5EEC00AF1EE52
:10ED100010FA09DD022020703846F0EE680AB0EEE5
:10ED2000480AFDF721FC06E02078022803D10120E3
:10ED3000207001F061FA6078012826D0022836D0D0
:10ED400003284AD12AA0FDF7EBFD19EE100AFCF7C3
:10ED500020FE41EC100B27A053EC102BFDF7E0FD3B
:10ED600025A0FDF7DDFD00F0DFF910EE100A00BF71
:10ED7000FCF70FFEBDEC048B41EC100B1FA0BDE8AF
:10ED8000F04153EC102BFDF7CBBD19A0FDF7C8FDEA
:10ED900029881CA0FDF7C4FD17A0FDF7C1FD31882F
:10EDA00019A0BDEC048BBDE8F041FDF7B9BD10A082
:10EDB00000E012E0FDF7B4FD18EE100AFCF7E9FDE3
:10EDC00041EC100B0BA053EC102BFDF7A9FD0AA092
:10EDD000FDF7A6FD18EE900ACAE7BDEC048BBDE86E
:10EDE000F081000010200020F01F0020F21F002002
:10EDF000523A0000256C66002C000000256C660D60
:10EE00000A0000002564000025640D0A00000000CF
:10EE10002DE9F05F2648C168F1B3DFF898B00E68BD
:10EE20008146DBF800400769C078E11B21F07F458F
:10EE3000ED1CB0B9DFF880804FF48030C8F844038F
:10EE4000C8F804031120FDF740FB1120FDF748FB33
:10EE50004FF0010AC8F800A02F20FCF717FB89F833
:10EE600003A0B54200D23546124BE8193C3320F0DE
:10EE70007F401860DBF800105A46091B21F07F41E3
:10EE8000001B20F07F40C91C81420FD91068186018
:10EE90002F20FCF7FBFA00E004E0BDE8F05F112052
:10EEA000FDF729BBBDE8F05F01F0B6B9BDE8F09F02
:10EEB000B81F002004150140001001402DE9F04169
:10EEC00017880646B81D14460D46984202D90C20F4
:10EED000BDE8F0813188072206290AD34FF4486C37
:10EEE0004FF6FF73614501D9994202D17088062817
:10EEF00001D21046ECE7604501D99842F9D1994218
:10EF000003D0984201D08142F3D80520E8552088EB
:10EF10001221401C80B2208029542088401C80B2DD
:10EF200020804119308801F0EFFD2188084480B22B
:10EF300020804119708801F0E7FD21880844208075
:10EF40000020C5E7FEF788BDF8B5134800F07CF94E
:10EF5000114D0026114C0C3D30B16169B9B1012051
:10EF60008DF80000684611E0287820B1616971B120
:10EF70008DF80060F6E7687858B1A168084800226B
:10EF80000068FEF7F5FD10B1A16901B188472E7048
:10EF9000F8BD6168F2E70000701F00205C260020C9
:10EFA000080D020010B5264C2DED048B2046D4ED43
:10EFB000038A90ED018AF5EEC08AF1EE10FA2CDD9D
:10EFC000D4ED020AF5EEC00AF1EE10FA25DDB2EE3C
:10EFD000041A80EE810A10EE100AFCF7DAFC41EC0C
:10EFE000190B18EE900AFCF7D4FC9FED161B53EC9E
:10EFF000112BFCF7DCFB53EC192BFCF74AFC41EC22
:10F00000190B18EE100AFCF7C4FC53EC192BFCF793
:10F01000C8FBFCF7D1FC606007E09FED0C0A28EE0E
:10F02000000A10EE100A84ED010A0949884203DA49
:10F03000B3EE040A84ED010ABDEC048B10BD0000A0
:10F04000F41F0020666666666666E63FA4707D3F34
:10F050000000A0412DE9F04100260125144C22E0DA
:10F060006068226900EBC607387805FA00F11142A2
:10F0700017D08A43226100F04DFD02463878E368DC
:10F0800005FA00F1194002FA00F3994209D17978A2
:10F09000012901D0012100E0002151407A6802B12C
:10F0A0009047761CF6B220788642D9D3BDE8F0812D
:10F0B000A41F00200E4910B54A788C780023A24284
:10F0C00012D0521CD2B24A70022A00D14B70084AA8
:10F0D0004B78183252F8232002600869104420F05F
:10F0E0007F400861012010BD0360002010BD0000BA
:10F0F000B81F0020826883881A4003689A5C0A70EF
:10F100008168491C81607047C26883881A4003681F
:10F110009954C168491CC160704710B50446C0B21B
:10F12000FEF7FAFD204610BD014890ED010A704738
:10F13000F41F002090ED000A704700F001B80000B5
:10F140000B4890ED020AB5EEC00AF1EE10FA0CD0B1
:10F15000B7EE001AC1EE000A9FED060A20EE800A03
:10F16000DFED050A20EE200A70479FED040A704784
:10F17000F41F002000007A440000704200000000EC
:10F180002DE9F041124E07460125BD403068FEF7DB
:10F190002FFD00280DD10F4C2069284207D1384699
:10F1A00000F0B8FC0028E06805D0284304E0A8433C
:10F1B0002061BDE8F081A843E06020692843206118
:10F1C000A1683068BDE8F0410022FEF7D1BC000024
:10F1D0005C0D0200A41F0020F8B51A4C207800280E
:10F1E0002ED0206928B10026E06820B1002526B184
:10F1F00010E00126F8E70125F9E7684652DF052807
:10F2000003D020B1FEF728FC04E0012602E02169CA
:10F210000098884785B96088ADF800006946A06805
:10F2200061DF052803D020B1FEF716FC04E00125BC
:10F2300002E0D4E902018847002EDED0002DD6D0AE
:10F24000F8BD0000DC1F0020054940880A88904274
:10F2500004D34988884201D80120704700207047B4
:10F26000681F002030B51488E51C9D4201D90C2090
:10F2700030BD02250D5513881C245B1C9BB21380E6
:10F28000CC5413885B1C9BB21380012807D0022842
:10F2900007D0032807D0042807D0072030BD00205E
:10F2A00004E0012002E0CD5401E00320C85410889E
:10F2B000401C1080002030BD0348017AC90702D0ED
:10F2C0000078FFF79BBA7047201F00202DE9F04718
:10F2D000DFF8ACA0DAF80C009AF8004080469AF803
:10F2E0000460DAF80890DAF810703AE009EBC40527
:10F2F0002A7833E002EB42016B68521C03EBC10138
:10F30000AB78D2B2934200D100220B78022B02D00C
:10F31000032B23D11FE0D1F804C00346014603E0CC
:10F32000614503D00B46C969C1B1F9E7B1B18B4260
:10F3300005D1C06918B9134F0126BE600027D1F866
:10F3400000C0C969D96149B10B6863440B6005E02D
:10F350000174C06900E000210028F9D16978914268
:10F36000C8D1641EE4B2C1D2CAE903078AF80460B6
:10F37000404502D00120BDE8F0870020FBE70000F7
:10F38000B81F0020001001402DE9F04705462F4826
:10F39000002680460778D0F80C904BE0D8F808009B
:10F3A00000EBC70440E002D02846ED691EE020785B
:10F3B000616800EB4002401CC0B201EBC20120704A
:10F3C000A278904200D126700A784868012A2DD18F
:10F3D000027C5ABB8A684260CA6882600A69C2605D
:10F3E0004969816198F8041001B146604268D8F813
:10F3F0001030DFF85CC0D11A21F07F41614502D2A4
:10F400008268114406E0991A826821F07F418A429D
:10F4100002D9511A016000E0066046600121866051
:10F420000174C66101F02AF9002DBCD12078617801
:10F430008842BCD17F1EFFB2B0D2D8F80C1049452B
:10F4400002D00120BDE8F0870020FBE7B81F0020B4
:10F45000FFFF7F0010B52DED028BFDF767F800F080
:10F4600019FA2F4CA168401AC82848D3FCF73EFE71
:10F4700000EE100A9FED2B8AF8EEC00A80EE880A93
:10F4800084ED050A10EE100AFCF783FA41EC100B2C
:10F4900025A053EC102BFDF743FAFFF74EFE84ED49
:10F4A000030A207870B300201D49206118312348D9
:10F4B0000A88130A037142714A88130A8371C27160
:10F4C00089880A0A0272417221690A0A8270C1702F
:10F4D00094ED050A20EE080ABDEEC00A10EE102ACF
:10F4E000130A0370427016A0FDF71AFA13490A2294
:10F4F000A1F11C00FEF7BDFF00F0CCF9A060BDEC4F
:10F50000028B10BD9FED131AC0EE010A9FED120A87
:10F5100030EE800ABCEEC00A10EE100A80B2C3E7DB
:10F52000001F00200000C84274656D706572617430
:10F530007572653A20256C660D0A0000C024002013
:10F540000D0A4865617274526174653A25640D0A4A
:10F55000000000003333A34000007042AAB069A24B
:10F560000DF1740C07CA8CE807000023684A0521D6
:10F570001846FEF7B5FA08B1FEF76EFA654A04AB15
:10F5800007CA83E807006448009064494FF480701C
:10F59000CDE9010103900323614A694604A8FEF7FF
:10F5A00069FB08B1FEF758FA5E4A40F6CD410320E8
:10F5B000FFF7D2F808B1FEF74FFA69460020FEF7D0
:10F5C000ADFF08B1FEF748FAFEF77AFF9DF8080094
:10F5D00055A120F00F00401C20F0F00010308DF8F5
:10F5E00008000B2202A87CDF08B1FEF735FA0024E0
:10F5F00000941020ADF800003C200194ADF802000A
:10F60000ADF804404FF4C870ADF8060068467ADFE4
:10F6100008B1FEF721FA4748009069464648FEF7D0
:10F62000CDFE08B1FEF718FA382101A8FCF70DF855
:10F6300002208DF804008DF8064005208DF80700A3
:10F6400038210FA8FCF701F83C4801251490ADF8CB
:10F650004C50242120A8FBF7F8FF40202490B42030
:10F660008DF88C502590364B20AA0FA9009401A844
:10F67000FEF70EFC08B1FEF7EFF91C216846FBF718
:10F68000E4FF4FF42030CDE900404FF470200290A9
:10F6900003208DF80C002B4805902B480690ADF800
:10F6A0000E408DF810406846FEF7D0FD08B1FEF719
:10F6B000D3F91DA925A0FDF733F90320FEF7DAFCE5
:10F6C00008B1FEF7C9F9FCF71BFE04214FF47A706C
:10F6D00000F066FF1EA0FDF723F900F0E9FE21A06F
:10F6E000FDF71EF9154C143448DF08B1FEF7B4F9E4
:10F6F0001248221DA11C1430FCF7DEFCFFF7AAFE05
:10F70000F2E7000053746172742E2E2E0A0000007E
:10F71000DC220020C00C0200DC200020DC210020C4
:10F7200025080200C1E601004E6F726469635F55EF
:10F7300041525400A1000200A4240020041F002014
:10F74000C70002005101020045EF010025730000CF
:10F7500074696D65725F696E6974206F6B21210D2C
:10F760000A0000007365747570206F6B2E2E2E2EAC
:10F770000D0A000070B5144682880E4605462088A2
:10F78000111D0144921C994201D8FE2A01D90C2076
:10F7900070BD521C32542088FF21401C80B2208052
:10F7A00031542088401C80B220808119288801F0C3
:10F7B000ABF92188084480B22080AA8842B1A968A8
:10F7C00041B13044FBF728FF2088A98808442080F5
:10F7D000002070BD072070BD10B500F051F8022068
:10F7E00000F049FE0EA0FDF79BF8032000F036FE66
:10F7F00010A0FDF795F8002000F04AFE13A0FDF7D9
:10F800008FF80F21084600F023FE16A0FDF788F8B8
:10F81000012000F00DFEBDE8104015A0FDF780B8F6
:10F82000736574206D6F6465206F6B2E2E2E0D0A2C
:10F830000000000064656661756C742070756C73FF
:10F8400065206F6B2E2E2E0D0A00000073616D7007
:10F850006C696E672072617465206F6B2E2E2E0DA1
:10F860000A0000006C6564206F6B2E2E2E0D0A00BE
:10F87000656E61626C65206F6B2E2E2E0D0A000086
:10F8800010B51E2000F0B1FBBDE810401D2000F0B7
:10F89000ACBB00000448054A0168914201D900212F
:10F8A000016008467047000078200020A086010013
:10F8B00010B50D2000F08FFB0C2000F08CFBBDE894
:10F8C0001040102000F0AABBF8B50E46017814468F
:10F8D0000546012901D1687830B12088821C9A42FE
:10F8E0002DD8012902D006E00720F8BD697801442F
:10F8F000891C994223D8181A801E87B2ADF800706F
:10F900002188B01C084469467DDF0028EDD12878A5
:10F91000022805D1BDF80010B94201D809210AE03A
:10F920000821012805D16878B84202D8ADF8000056
:10F9300001E0ADF80070BDF80000FE2801D90C20F0
:10F94000F8BD2288401CB0542088401C80B2208022
:10F9500031542088401C2080BDF8001008442080CD
:10F960000020F8BD31B540F2E73404E0401E0090BD
:10F970002046FBF74FFD00980028F7D138BD490716
:10F98000090E002806DA00F00F0202F1E02282F8E8
:10F99000141D03E000F1E02282F8001400F01F02C1
:10F9A000012191404009800000F1E020C0F8801260
:10F9B000C0F80011704700002DE9F04788468146E5
:10F9C00000F0DEFB0124224E0028484618D0FFF745
:10F9D0007BF8304490F848008009032802D00128C1
:10F9E00006D007E01B48006804FA09F4204201D160
:10F9F000022100E003214846BDE8F04700F0FFBACD
:10FA000000F0CAFB002820D04846FFF75DF8054605
:10FA1000114F4FF4807007EB850100EB8500D1F8A2
:10FA2000102580B242F00102C1F8102500F016FB4B
:10FA3000B8F1000F09D04846FFF746F856F8200005
:10FA4000002802D0AC40C7F80443BDE8F0870000AE
:10FA50009826002010050050006000402DE9FC4170
:10FA6000DFF8A480044608EB0400002790F930007A
:10FA70001346C0170E46401C01D0082740E0F2781C
:10FA800019462046FEF7FCFF0546401C37D0B078EB
:10FA900048B1A00000F1A040D0F8001721F0020109
:10FAA000C0F8001707E000217378204600910A464D
:10FAB000019100F027FAF078C0B11448317800EBDA
:10FAC0008500D0F81025124B1A40C0F810254FF4CD
:10FAD000F8524FF4403302EA042203EA01410A4398
:10FAE000D0F810150A43C0F8102509E008EB05000E
:10FAF000327810F8481F41EA8211017000E00427B3
:10FB00003846BDE8FC8100009826002000600040D7
:10FB1000FFE0FCFF03490968C14011F0010000D07B
:10FB2000012070471005005070B5124D95F8540033
:10FB300008B1082070BD0020411E2A18401CC0B228
:10FB400082F830102028F8D300242046FEF78AFFE0
:10FB5000641CE4B20C2CF8D303210620FFF70FFF3E
:10FB600005494FF00040C1F80403012085F8540016
:10FB7000002070BD9826002000600040034890F8E7
:10FB80005400002800D00120704700009826002073
:10FB90002DE9F0411E4C07460D46E07E10B10820CD
:10FBA000BDE8F08107B91B4F787F20773846FEF714
:10FBB000C9F86560386920602800174E4FF00005CD
:10FBC00016D0397F207F48B1C6F81051C6F82051B1
:10FBD000C6F82451C6F84451104804E0C6F81C5138
:10FBE000C6F844510E48C6F804030220FFF7C7FECA
:10FBF000207F08B1082000E00420C6F80005E57564
:10FC00002576A5750120E076A5760020C8E70000DE
:10FC1000F02600203C0D02000020004010030200EE
:10FC2000800002002DE9F0411F4B1C7F3CB14FF4D6
:10FC30000052B2EB104F02D01020BDE8F081D3F893
:10FC400004C00022194D4FF404764FF40177BCF143
:10FC5000000F05D014B1C5F8086301E0C5F80873BA
:10FC600093F817E0BEF1000F10D01A7E52B1BCF12C
:10FC7000000F05D014B1C5F8046301E0C5F80473A2
:10FC80001120DAE718610122197604E0D975002500
:10FC9000D8605D761D761CB1BDE8F04100F066B815
:10FCA000BDE8F04100F014B8F0260020002000402C
:10FCB00010B5064C207F002806D1A07E002803D175
:10FCC00000F05EFB0120A07610BD0000F0260020B1
:10FCD0002DE9F05F234DA87E104301D100F050FBC9
:10FCE000214C686830B14FF40170C4F8040300205F
:10FCF000BDE8F09F4FF000094FF4A27AC4F8449198
:10FD00004FF4927BA8465946204600F0B9F90546C3
:10FD10004FF48471204600F0B3F90746514620465F
:10FD200000F0AEF9064647EA06012943EBD055EA52
:10FD3000060007D100F08EFA98F8171098F819000D
:10FD40008142E0D888F817900DB10320D0E70EB1BA
:10FD50000F20CDE798F81A10012009B12060C6E7FE
:10FD60006060C4E7F0260020002000402DE9F05F2D
:10FD7000204C00264FF48873C4F810614FF4A2752C
:10FD8000C4F84461C4F83405C4F838158AB1D4F80D
:10FD9000000240F02000C4F80002DFF85C80D8F8D0
:10FDA000040048B14FF40470C4F804030020BDE817
:10FDB000F09F01202060F0E79A46A9464FF4927B1D
:10FDC0005146204600F067F905464946204600F0B6
:10FDD00062F907465946204600F05DF93D43054368
:10FDE000EED088F8176008B10320E0E7002FDDD0DF
:10FDF0000F20DCE700200040F02600202DE9F0472E
:10FE00001E4D2A7F3AB14FF40053B3EB104F02D08E
:10FE10001020BDE8F087AB7D0BB11120F9E7A97583
:10FE20000023A860AB822AB3154C00264FF49072D1
:10FE30009846C4F820314FF4AC73C4F85881C4F824
:10FE40004405C4F848150120A060686880B992464E
:10FE500099465146204600F01EF90746494620467D
:10FE600000F019F90743F4D000B10F2685F8168089
:10FE70003046CEE7BDE8F04700F004B8F026002099
:10FE8000002000402DE9F05F1C4F00254FF48E7AD2
:10FE90002E46C7F81C514FF00108C7F8088000F043
:10FEA0004DFC174CB815616879B123E05F465146A7
:10FEB000484600F0E5F810B9A08AB842F7D1A08A08
:10FEC000B84204D000F03AFC01E08346B946A08A6B
:10FED000A17D8842EAD3A08A584501D10F2508E0C8
:10FEE0004F465146384600F0CBF80028F9D0C7F805
:10FEF0000C80A6752846BDE8F09F00000020004059
:10FF0000F026002030B541EA4201DDE9034541EA2F
:10FF10008301800041EA042100F1A04041EA05414B
:10FF2000C0F8001730BD30B541EA4201DDE90345B4
:10FF300041EA8301800041EA042100F1A04041EA46
:10FF40000541C0F8001730BD30B541EA4201DDE996
:10FF5000034541EA8301800041EA042100F1A04009
:10FF600041EA0541C0F8001730BD30B541EA420111
:10FF7000DDE9034541EA8301800041EA042100F103
:10FF8000A04041EA0541C0F8001730BD1CB5002271
:10FF90000B46009211460192FFF7C5FF1CBD1CB530
:10FFA00000220B46009211460192FFF7CDFF1CBDC7
:10FFB0001CB500220B46009211460192FFF7D5FFB7
:10FFC0001CBD1CB5002100910B4601220191114678
:10FFD000FFF7A9FF1CBD1CB5002100910B460122B3
:10FFE00001911146FFF7B0FF1CBD1CB50021009127
:10FFF0000B46012201911146FFF7B7FF1CBD80009F
:020000040002F8
:1000000000F5E06000F1A040026822F44032026096
:10001000026842EA0141016070470000012181400D
:1000200001480160704700000C050050012181402B
:1000300001480160704700000C050050012181401B
:10004000014801607047000008050050012181400F
:10005000014801607047000008050050034908B5D9
:100060000844002101600068009008BD0060004065
:1000700002494058012800D000207047006000402D
:100080004058002800D001207047D0F804030840F1
:1000900000D0012070474058002800D00120704750
:1000A00070B516460D46002405E0285DFDF734FEC8
:1000B0000028FAD1641CB442F7D30A20FDF72CFEC5
:1000C0000028FAD170BD10B550B103280CD1022020
:1000D000FEF736FB002807D0BDE81040FDF7BCBC9A
:1000E000BDE8104000F0FAB910BD000070B50188FD
:1000F000164D0446102911D0112917D0284613296E
:1001000040881DD052291AD100231A461946A9DF6A
:10011000002814D0BDE87040FDF79EBC0720FEF714
:100120000FFB08B1FDF798FCA08807E00020FEF760
:1001300007FB08B1FDF790FC4FF6FF70688070BDBB
:1001400000231A4685217FDFE2E70000001F002020
:100150000078002807D104483B21408876DF00283A
:1001600001D0FDF779BC7047001F00200021425CE0
:100170000AB101207047491C0629F8D300207047B6
:100180000449084490F93000082801DB0120704739
:1001900000207047982600200449084490F9300058
:1001A000082801D2012070470020704798260020BF
:1001B00006490979490701D40820704720B104494C
:1001C00049780160002070470E207047801F002092
:1001D0001027002008B5042269460520FBF799FD89
:1001E000BDF8000041BA03480180BDF8021049BAC9
:1001F000418008BDF01F0020054800219FED050A41
:10020000C16080ED020A80ED010A01704170704703
:100210003C2000200000000070B5012670044FF063
:10022000E0210025C1F88001084C4010C4F84803C3
:10023000C4F8080366602F20FBF728F9A660044C79
:100240002F202561FBF722F9E57070BD00100140F9
:10025000B81F002009480A490022C37DC1F80821BF
:1002600043B1D1F81815437EC268D154417E491C70
:1002700041767047D1F8180570470000F02600203D
:100280000020004030B58FB00024054607949DF84B
:100290001C001C2120F00F00401C20F0F00010304A
:1002A0008DF81C009DF81D0020F00F00401C20F070
:1002B000F00010308DF81D009DF81E0020F00600A3
:1002C000801C8DF81E006846FBF7BFF99DF8000002
:1002D000019440F010008DF8000007A8CDE904401B
:1002E0000394069428788DF83A000320ADF838007E
:1002F0000D949DF83400142120F00F00401C20F0D4
:10030000F00010308DF834009DF8350020F00F001B
:10031000401C20F0F00010308DF835009DF83600BC
:1003200020F00600801C20F0180040F001008DF83D
:10033000360008A8FBF789F90EA808900DA80990C7
:100340000120ADF828001420ADF82A40ADF82C00AB
:10035000688805F10C0308AA6946A2DF0FB030BD1A
:100360001FB501228DF8080004488DF80020019186
:10037000D0E90012684690471FBD0000F02600201B
:1003800004480021C0F82411C0F8081101210160BF
:10039000704700000020004008B50249002000918D
:1003A00008BD0000001F00202DE9F0410746806ACB
:1003B00014468846C8B3002531E000BFB96A05EB92
:1003C000450001EB8006B088801CFE2802D90C2075
:1003D000BDE8F0812288401C08F80200208816221F
:1003E000401C80B2208008F800202088401C80B289
:1003F000208000EB0801308800F086FB218808444B
:1004000080B22080B28842B1B16871B14044FBF73C
:1004100003F92088B188084420806D1CEDB297F85C
:100420002C00A842CAD80020D2E7FFE70720CFE778
:1004300010B504460720FCF793F814B140F04001D2
:1004400001E020F04001BDE810400720FCF760BA51
:1004500040EA0110C1B20920FCF75ABA10B50446AF
:100460000720FCF77DF800F0FC012143BDE81040B7
:100470000720FCF74DBA01460620FCF749BA0000F8
:1004800090ED000A014880ED010A7047102000201D
:1004900010B504460720FCF763F800F0E30040EADB
:1004A0008400C1B2BDE810400720FCF731BA00005B
:1004B00010B5FDF783FC04A0FCF732FABDE810404C
:1004C0000548FFF7DDBF0000626567696E206F6B4E
:1004D0002E2E2E0D0A0000001420002010B5002042
:1004E000FEF72EF908B1FDF7B7FAFEF775F808B177
:1004F000FDF7B2FA3CDF002803D0BDE81040FDF75D
:10050000ABBA10BD18B10349C860002070470E2077
:1005100070470000DC1F00201CB5034901910091C9
:10052000694660DF1CBD0000001F002070B50E464C
:100530000546144614211046FBF787F80120208059
:100540000021216121732672657205B1A07200201D
:1005500070BDFDF771BA000070B509B18C0701D00C
:10056000072070BD064C0125A160628005496360CB
:1005700010DF0028F5D1257016202EDF70BD000099
:10058000DC1F002053050200D1ED000A90ED001A97
:1005900001EE200A81ED000A30EE600A704700008B
:1005A000104A11600F4A00210C3A11600321121DFC
:1005B00011600C49303108600B484FF48031C0F8AD
:1005C00004130121C0F8001201600849602081F87D
:1005D00000044FF0E0211015C1F88002C1F80001BD
:1005E0007047000010A5004000A000400AE000E0B5
:1005F0002DE9F84F204C00256846D4E903B6FEF7F4
:1006000059FD8046FEF762FE0746A946B8F1000F85
:1006100025D00023009ACC46E06819E0076801461F
:10062000974202D9BA1A026014E0C1F800C0D1F8AA
:100630000C80D21BC8693B448A46B8F1000F07D032
:10064000F71827F07F47C1E90178CAF81C500D461A
:100650000028E3D1E0602846FEF796FE04E0284635
:10066000FEF792FE00B917B15846FEF7D1FB84F8A9
:100670000490BDE8F88F0000B81F00200D4B10B5A6
:10068000D96831B102680C68A24204D8A21A0A6083
:10069000C161D86010BD0B4603E00B46C969121B4F
:1006A00021B10C689442F8D3A41A0C600260C161B5
:1006B000D86110BDB81F00202DE9F0411D4DEC6838
:1006C000002C35D01C48002700682969B846401A1C
:1006D00020F07F462068B04215D82246361A0744DB
:1006E000E469107C68B182F810806B6933B1D2E99B
:1006F0000501984728B1FDF7AFF902E0D2E90510EE
:100700008847002CE6D16978A878814206D1401C40
:10071000C0B2A870022801D185F802800548A978E6
:10072000183040F82170BDE8F0411420FBF7E3BE1B
:10073000BDE8F081B81F002004150140064A0020E2
:10074000C2F81C010548838A8168C95C838A5B1CE6
:100750008382C2F81C15704700200040F02600205C
:1007600030B58FB005461C216846FAF76EFF0024AD
:100770009DF80000019440F00C008DF800000394F7
:1007800004940594069428788DF836000220ADF87C
:1007900034000C949DF83000142120F00F00401C10
:1007A00020F0F00010308DF830009DF8310020F07E
:1007B0000F00401C20F0F00010308DF831009DF843
:1007C000320020F00600801C20F0180040F00100EC
:1007D0008DF8320007A8FAF738FF0DA807900CA88B
:1007E00008900120ADF824001420ADF82640ADF8A3
:1007F000280068882B1D07AA6946A2DF0FB030BD0C
:100800001FB500218DF8080005488DF8001082689A
:1008100001928175D0E90012684690471FBD000023
:10082000F026002070B5017841B1012901D00229DC
:1008300021D14068BDE87040FDF70EB90F4C0E4D58
:1008400060782844FDF7FCF96078401CC2B2A81813
:10085000627010F8010C0A2801D0142A0BD3064943
:1008600001F57770FDF705FE082802D008B1FDF705
:10087000F3F80020607070BDC8200020001F002029
:100880007CB50178264D012909D002292CD00029F8
:1008900029D129462348FDF7E9F880B334E04068C0
:1008A000017820481038FDF7FCF81E4C103C20B1B0
:1008B00001218DF80010019007E0A068E168081A96
:1008C000012805D100208DF8000069686846884736
:1008D000A068E168081AA188884204D8104801215C
:1008E000801CFFF79FF97CBD02218DF80010C068C5
:1008F00001900B480121801CFFF794F90CE0FFE701
:1009000001210748FFF77AFA06488168C0688842E3
:10091000E9D103208DF800006968684688477CBDEE
:10092000781F0020882600202DE9FF413E4D4FF41E
:1009300000712846FFF7A9FB01273C4C4FF40178D2
:10094000002600B34FF492712846FFF799FBD0B10F
:10095000C5F82461C5F80883A07E00B96F60022045
:100960008DF80000D5F88004C5F880040390E07D80
:100970008DF80800E0680190E6752676D4E900124B
:100980006846904724E004212846FFF77EFBF8B133
:100990004FF484712846FFF773FBC8B1FFF75AFC88
:1009A000E07D617E884213D1227E3AB1607EE168AB
:1009B000E2752269E2602676667607E0A07E00B9DD
:1009C0006F60C5F80883E675607EE168FFF7C8FCD4
:1009D0004FF48E712846FFF753FB58B1A18AA07DD2
:1009E000814202D2FFF7AAFE04E0C5F81C6108B1FB
:1009F000FFF706FF4FF4A2712846FFF741FB0028DE
:100A00000FD0C5F84461A07E00B12F60E07D0028C2
:100A100007D0E675607EE16804B0BDE8F041FFF7FD
:100A20009FBCBDE8FF81000000200040F0260020B0
:100A30007FB5334C4FF492712046FFF72CFB314DBC
:100A40000026B0B1C4F8246102208DF80000D4F86B
:100A50008004C4F880040390D4F83C058DF80800A5
:100A6000E8680190EE752E76D5E900126846904749
:100A70001FE04FF488712046FFF70DFBC8B1C4F8A2
:100A80001061D4F83C05E97DC0B2814211D12A7EC3
:100A90005AB1E968D4F8003223F02003C4F80032D8
:100AA000EA752A69EA602E7601E0EE75E968FFF7DB
:100AB00057FC4FF4A2712046FFF7EDFA50B1C4F88D
:100AC0004461E87D30B1EE75D4F83C05E968C0B208
:100AD000FFF746FC4FF490712046FFF7DCFA002840
:100AE0000CD0C4F82061A87D002807D0D4F84C05AC
:100AF00004B0C0B2BDE87040FFF782BE7FBD000009
:100B000000200040F02600200870000A48700220F3
:100B10007047FFF75FBB000038B515494888A0F55E
:100B20007F42FF3A23D04A78124C521CD2B24A700C
:100B3000237B93420AD3091D75DF002817D0A169D2
:100B4000002914D001B0BDE83040084700254D70A1
:100B5000217C29B13B2176DF10B1A16901B1884721
:100B60006169002903D08DF800506846884738BD78
:100B7000641F00205C2600200F480068C005C00DDF
:100B800013D0103840B2002806DA00F00F0000F150
:100B9000E02090F8140D03E000F1E02090F800044C
:100BA0004009012803D0032803D002207047002009
:100BB000704701207047000004ED00E04278837820
:100BC000521CD2B2934200D100220378934201D149
:100BD000002070470A704168407800EB400001EB4C
:100BE000C00070472DE9FC411646DDE90854CDE907
:100BF00000541F468046022200F00CF8002807D15E
:100C0000CDE900543B4610223146404600F002F840
:100C1000BDE8FC812DE9FC5F0026DDE90C4B99461F
:100C200092468E4680462788354630E0D8F8040044
:100C3000002200EB850069460068019001A865DF8D
:100C4000002830D19DF8000050451FD10EB1002181
:100C500000E00221228808441118594522D846B9DB
:100C6000521C90B2208009F800E02088401C2080AF
:100C70000126218801A801EB0902694665DF0028E9
:100C800011D120889DF80010084420806D1CB8F810
:100C90000000A842CADC56B12088C01B401E80B2AA
:100CA000FF2802D90C20BDE8FC9F09F807000020AE
:100CB000F9E7017911B9007B002800D001207047C5
:100CC000191A05070000000000E0D701CC2400201D
:100CD000EC240020182500200D0000000E0000006C
:100CE0000F000000100000000D000300EDE5010002
:100CF0000E000300EDE501000F000300EDE501002B
:100D000010000300EDE501003C2600209ECADC2413
:100D10000EE5A9E093F3A3B50000406E06000000C5
:100D200008000000070000000500000000000000AF
:100D30000000000000009D0003000000060000000D
:100D4000080000000700000005000000000000008F
:100D50000000000000009D0003000000E8270020C4
:100D6000030000000000000004FA97999999D93F08
:100D7000AF788E1DC571CC3F9FC678D0099AC33F0E
:100D8000935555555555E53F599322942449D23FE3
:100D9000DE03CB966446C73F44523EDF12F1C23FAA
:100DA0000000000000000000C80D0200001F00202D
